:020000040800F2
:10000000005000200D0100081D0300081F03000818
:100010002103000823030008250300080000000056
:10002000000000000000000000000000270300089E
:1000300029030008000000002B0300082D0300081E
:100040005101000851010008510100085101000848
:100050005101000851010008510100085101000838
:100060005101000851010008510100085101000828
:100070005101000851010008510100085101000818
:100080005101000851010008510100085101000808
:1000900051010008510100085101000851010008F8
:1000A00051010008510100085101000851010008E8
:1000B00051010008510100085101000851010008D8
:1000C00051010008510100085101000851010008C8
:1000D00051010008510100085101000851010008B8
:1000E0005101000851010008510100080000000002
:1000F0000000000000000000000000000000000000
:0C01000000000000000000005FF808F1A3
:10010C00002103E00A4B5B584350043109480A4B69
:10011C0042189A42F6D3094A02E0002342F8043B03
:10012C00074B9A42F9D300F00FF800F0DDF8704756
:10013C003003000800000020000000200000002018
:10014C0000000020FEE70000374B82B01A6842F036
:10015C0001021A605968354A0A405A601A6822F03E
:10016C00847222F480321A601A6822F480221A6097
:10017C005A6822F4FE025A604FF41F029A60002261
:10018C00009201921A6842F480321A601A6802F4E2
:10019C0000320192009A01320092019A1AB9009A27
:1001AC00B2F5A06FF2D11A6812F4003218BF012216
:1001BC000192019A012A30D11D4A116841F01001B7
:1001CC001160116821F003011160116841F0020106
:1001DC0011605A685A605A685A605A6842F48062D0
:1001EC005A605A6822F47C125A605A6842F4E81237
:1001FC005A601A6842F080721A601A689201FCD533
:10020C005A6822F003025A605A6842F002025A609D
:10021C005A6802F00C02082AFAD14FF00062054B22
:10022C009A6002B0704700BF001002400000FFF857
:10023C000020024000ED00E0F0B5CB780E88DA0625
:10024C0048BF8A7803F00F0548BF15430A78C2B13E
:10025C00002101274FF00F0C026807FA01F434EA71
:10026C00060E0AD1282B29D144618C000CFA04FE0D
:10027C0022EA0E0205FA04F4224301310829ECD1DA
:10028C000260FF2E19D900214FF0010C426801F1D8
:10029C0008040CFA04F434EA06070AD1282B11D10D
:1002AC0044610F278C00A74022EA070205FA04F4E8
:1002BC00224301310829EAD14260F0BD482BD4D148
:1002CC000461D2E7482B08BF0461EAE7416170473B
:1002DC00044B9A6911B102439A61704722EA0002F9
:1002EC00FAE700BF0010024007B501210420FFF718
:1002FC00EFFF054B054801A90193FFF79DFF08216E
:10030C000248FFF7E3FFFEE7080003100008014076
:10031C007047FEE7FEE7FEE7FEE770477047704761
:04032C007047000016
:040000050800010DE1
:00000001FF
